{
  "contractName": "OrderBook",
  "abi": [
    {
      "inputs": [
        {
          "name": "_levels",
          "type": "uint256"
        }
      ],
      "payable": false,
      "stateMutability": "nonpayable",
      "type": "constructor"
    },
    {
      "constant": false,
      "inputs": [
        {
          "name": "addLevel",
          "type": "uint256"
        },
        {
          "name": "addAmount",
          "type": "uint256"
        }
      ],
      "name": "addOrder",
      "outputs": [],
      "payable": false,
      "stateMutability": "nonpayable",
      "type": "function"
    },
    {
      "constant": true,
      "inputs": [
        {
          "name": "level",
          "type": "uint256"
        }
      ],
      "name": "getLevel",
      "outputs": [
        {
          "components": [
            {
              "name": "amount",
              "type": "uint256"
            },
            {
              "name": "floater",
              "type": "address"
            }
          ],
          "name": "",
          "type": "tuple[]"
        }
      ],
      "payable": false,
      "stateMutability": "view",
      "type": "function"
    },
    {
      "constant": true,
      "inputs": [],
      "name": "viewUserOrders",
      "outputs": [
        {
          "components": [
            {
              "name": "bookLevel",
              "type": "uint256"
            },
            {
              "name": "indexLocation",
              "type": "uint256"
            }
          ],
          "name": "",
          "type": "tuple[]"
        }
      ],
      "payable": false,
      "stateMutability": "view",
      "type": "function"
    },
    {
      "constant": true,
      "inputs": [
        {
          "name": "levelIndex",
          "type": "uint256"
        }
      ],
      "name": "returnLevel",
      "outputs": [
        {
          "components": [
            {
              "name": "amount",
              "type": "uint256"
            },
            {
              "name": "floater",
              "type": "address"
            }
          ],
          "name": "",
          "type": "tuple[]"
        }
      ],
      "payable": false,
      "stateMutability": "view",
      "type": "function"
    },
    {
      "constant": false,
      "inputs": [
        {
          "name": "index",
          "type": "uint256"
        }
      ],
      "name": "removeOrder",
      "outputs": [],
      "payable": false,
      "stateMutability": "nonpayable",
      "type": "function"
    },
    {
      "constant": false,
      "inputs": [
        {
          "name": "level",
          "type": "uint256"
        },
        {
          "name": "index",
          "type": "uint256"
        }
      ],
      "name": "forceRemoveOrder",
      "outputs": [],
      "payable": false,
      "stateMutability": "nonpayable",
      "type": "function"
    }
  ],
  "bytecode": "0x608060405234801561001057600080fd5b5060405160208061104b833981018060405261002f9190810190610051565b806002819055505061009b565b60008151905061004b81610084565b92915050565b60006020828403121561006357600080fd5b60006100718482850161003c565b91505092915050565b6000819050919050565b61008d8161007a565b811461009857600080fd5b50565b610fa1806100aa6000396000f3fe608060405234801561001057600080fd5b50600436106100625760003560e01c80630894eb74146100675780632ffde79014610097578063612d8611146100b357806386481d40146100d15780639645337a14610101578063f28db6c41461011d575b600080fd5b610081600480360361007c9190810190610c97565b610139565b60405161008e9190610e64565b60405180910390f35b6100b160048036036100ac9190810190610cc0565b610224565b005b6100bb61042e565b6040516100c89190610e86565b60405180910390f35b6100eb60048036036100e69190810190610c97565b6104de565b6040516100f89190610e64565b60405180910390f35b61011b60048036036101169190810190610c97565b6105c9565b005b61013760048036036101329190810190610cc0565b61091d565b005b60606002548210801561014c5750600082115b61015557600080fd5b600080838152602001908152602001600020805480602002602001604051908101604052809291908181526020016000905b828210156102195783829060005260206000209060020201604051806040016040529081600082015481526020016001820160009054906101000a900473ffffffffffffffffffffffffffffffffffffffff1673ffffffffffffffffffffffffffffffffffffffff1673ffffffffffffffffffffffffffffffffffffffff168152505081526020019060010190610187565b505050509050919050565b600080600084815260200190815260200160002090506001818054905011156103a45760008290505b60018280549050038110156103145781600182018154811061026b57fe5b906000526020600020906002020182828154811061028557fe5b9060005260206000209060020201600082015481600001556001820160009054906101000a900473ffffffffffffffffffffffffffffffffffffffff168160010160006101000a81548173ffffffffffffffffffffffffffffffffffffffff021916908373ffffffffffffffffffffffffffffffffffffffff160217905550905050808060010191505061024d565b508060018280549050038154811061032857fe5b90600052602060002090600202016000808201600090556001820160006101000a81549073ffffffffffffffffffffffffffffffffffffffff021916905550508080548091906001900361037c9190610abd565b508060008085815260200190815260200160002090805461039e929190610aef565b50610429565b6000808481526020019081526020016000206000815481106103c257fe5b90600052602060002090600202016000808201600090556001820160006101000a81549073ffffffffffffffffffffffffffffffffffffffff021916905550506000808481526020019081526020016000208054809190600190036104279190610bb8565b505b505050565b6060600160003373ffffffffffffffffffffffffffffffffffffffff1673ffffffffffffffffffffffffffffffffffffffff168152602001908152602001600020805480602002602001604051908101604052809291908181526020016000905b828210156104d55783829060005260206000209060020201604051806040016040529081600082015481526020016001820154815250508152602001906001019061048f565b50505050905090565b6060600254821080156104f15750600082115b6104fa57600080fd5b600080838152602001908152602001600020805480602002602001604051908101604052809291908181526020016000905b828210156105be5783829060005260206000209060020201604051806040016040529081600082015481526020016001820160009054906101000a900473ffffffffffffffffffffffffffffffffffffffff1673ffffffffffffffffffffffffffffffffffffffff1673ffffffffffffffffffffffffffffffffffffffff16815250508152602001906001019061052c565b505050509050919050565b80600160003373ffffffffffffffffffffffffffffffffffffffff1673ffffffffffffffffffffffffffffffffffffffff168152602001908152602001600020805490501161061757600080fd5b61061f610bea565b600160003373ffffffffffffffffffffffffffffffffffffffff1673ffffffffffffffffffffffffffffffffffffffff168152602001908152602001600020828154811061066957fe5b906000526020600020906002020160405180604001604052908160008201548152602001600182015481525050905060008060008360000151815260200190815260200160002090506001818054905011156108205760008390505b600182805490500381101561078c578160018201815481106106e357fe5b90600052602060002090600202018282815481106106fd57fe5b9060005260206000209060020201600082015481600001556001820160009054906101000a900473ffffffffffffffffffffffffffffffffffffffff168160010160006101000a81548173ffffffffffffffffffffffffffffffffffffffff021916908373ffffffffffffffffffffffffffffffffffffffff16021790555090505080806001019150506106c5565b50806001828054905003815481106107a057fe5b90600052602060002090600202016000808201600090556001820160006101000a81549073ffffffffffffffffffffffffffffffffffffffff02191690555050808054809190600190036107f49190610abd565b50806000808460000151815260200190815260200160002090805461081a929190610aef565b506108ad565b6000808360000151815260200190815260200160002060008154811061084257fe5b90600052602060002090600202016000808201600090556001820160006101000a81549073ffffffffffffffffffffffffffffffffffffffff02191690555050600080836000015181526020019081526020016000208054809190600190036108ab9190610bb8565b505b600160003373ffffffffffffffffffffffffffffffffffffffff1673ffffffffffffffffffffffffffffffffffffffff16815260200190815260200160002083815481106108f757fe5b906000526020600020906002020160008082016000905560018201600090555050505050565b6002548210801561092e5750600082115b61093757600080fd5b61093f610c04565b60405180604001604052808381526020013373ffffffffffffffffffffffffffffffffffffffff16815250905060008084815260200190815260200160002081908060018154018082558091505090600182039060005260206000209060020201600090919290919091506000820151816000015560208201518160010160006101000a81548173ffffffffffffffffffffffffffffffffffffffff021916908373ffffffffffffffffffffffffffffffffffffffff160217905550505050610a06610bea565b6040518060400160405280858152602001600160008088815260200190815260200160002080549050038152509050600160003373ffffffffffffffffffffffffffffffffffffffff1673ffffffffffffffffffffffffffffffffffffffff1681526020019081526020016000208190806001815401808255809150509060018203906000526020600020906002020160009091929091909150600082015181600001556020820151816001015550505050505050565b815481835581811115610aea57600202816002028360005260206000209182019101610ae99190610c34565b5b505050565b828054828255906000526020600020906002028101928215610ba75760005260206000209160020282015b82811115610ba6578282600082015481600001556001820160009054906101000a900473ffffffffffffffffffffffffffffffffffffffff168160010160006101000a81548173ffffffffffffffffffffffffffffffffffffffff021916908373ffffffffffffffffffffffffffffffffffffffff160217905550505091600201919060020190610b1a565b5b509050610bb49190610c34565b5090565b815481835581811115610be557600202816002028360005260206000209182019101610be49190610c34565b5b505050565b604051806040016040528060008152602001600081525090565b604051806040016040528060008152602001600073ffffffffffffffffffffffffffffffffffffffff1681525090565b610c7f91905b80821115610c7b576000808201600090556001820160006101000a81549073ffffffffffffffffffffffffffffffffffffffff021916905550600201610c3a565b5090565b90565b600081359050610c9181610f50565b92915050565b600060208284031215610ca957600080fd5b6000610cb784828501610c82565b91505092915050565b60008060408385031215610cd357600080fd5b6000610ce185828601610c82565b9250506020610cf285828601610c82565b9150509250929050565b6000610d088383610df7565b60408301905092915050565b6000610d208383610e26565b60408301905092915050565b610d3581610f14565b82525050565b6000610d4682610ec2565b610d508185610ef2565b9350610d5b83610ea8565b8060005b83811015610d8c578151610d738882610cfc565b9750610d7e83610ed8565b925050600181019050610d5f565b5085935050505092915050565b6000610da482610ecd565b610dae8185610f03565b9350610db983610eb5565b8060005b83811015610dea578151610dd18882610d14565b9750610ddc83610ee5565b925050600181019050610dbd565b5085935050505092915050565b604082016000820151610e0d6000850182610e55565b506020820151610e206020850182610d2c565b50505050565b604082016000820151610e3c6000850182610e55565b506020820151610e4f6020850182610e55565b50505050565b610e5e81610f46565b82525050565b60006020820190508181036000830152610e7e8184610d3b565b905092915050565b60006020820190508181036000830152610ea08184610d99565b905092915050565b6000602082019050919050565b6000602082019050919050565b600081519050919050565b600081519050919050565b6000602082019050919050565b6000602082019050919050565b600082825260208201905092915050565b600082825260208201905092915050565b6000610f1f82610f26565b9050919050565b600073ffffffffffffffffffffffffffffffffffffffff82169050919050565b6000819050919050565b610f5981610f46565b8114610f6457600080fd5b5056fea265627a7a72305820a41d33c433087fa613300946bae63994370a4d374b7d47b8f48ed8bdd4d92dde6c6578706572696d656e74616cf50037",
  "source": "pragma solidity ^0.5.1;\npragma experimental ABIEncoderV2;\n\ncontract OrderBook {\n\n    struct Order {\n        uint amount;\n        address floater;\n    }\n\n    struct userOrders {\n        uint bookLevel;\n        uint indexLocation;\n    }\n\n    mapping (uint=>Order[]) book;\n    mapping (address=>userOrders[]) openOrders;\n    uint levels;\n\n    constructor(uint _levels) public {\n        levels = _levels;\n    }\n\n    function addOrder(uint addLevel, uint addAmount) public {\n        require(addLevel < levels && addLevel > 0);\n        Order memory newOrder = Order(addAmount, msg.sender);\n        book[addLevel].push(newOrder);\n        userOrders memory pointer =  userOrders(addLevel, book[addLevel].length-1);\n        openOrders[msg.sender].push(pointer);\n    }\n\n    function getLevel(uint level) public view returns (Order[] memory){\n        require(level < levels && level > 0);\n        return book[level];\n    }\n\n    function viewUserOrders() public view returns (userOrders[] memory){\n        return openOrders[msg.sender];\n    }\n\n    function returnLevel(uint levelIndex) public view returns (Order[] memory){\n        require(levelIndex < levels && levelIndex > 0);\n        return book[levelIndex];\n    }\n\n    function removeOrder(uint index) public {\n        require(openOrders[msg.sender].length > index);\n        userOrders memory orderToRemove = openOrders[msg.sender][index];\n        Order[] storage levelToUpdate = book[orderToRemove.bookLevel];\n\n        if (levelToUpdate.length > 1){\n            for (uint x=index; x < levelToUpdate.length-1; x++){\n                levelToUpdate[x] = levelToUpdate[x+1];\n            }\n            delete levelToUpdate[levelToUpdate.length - 1];\n            levelToUpdate.length--;\n            book[orderToRemove.bookLevel] = levelToUpdate;\n        } else {\n            delete book[orderToRemove.bookLevel][0];\n            book[orderToRemove.bookLevel].length--;\n        }\n        //remove order from list\n        delete openOrders[msg.sender][index];\n    }\n\n    //useful for testing, must be removed later\n    function forceRemoveOrder(uint level, uint index) public {\n        Order[] storage levelToUpdate = book[level];\n        if (levelToUpdate.length > 1){\n            for (uint x=index; x < levelToUpdate.length-1; x++){\n                levelToUpdate[x] = levelToUpdate[x+1];\n            }\n            delete levelToUpdate[levelToUpdate.length - 1];\n            levelToUpdate.length--;\n            book[level] = levelToUpdate;\n        } else {\n            delete book[level][0];\n            book[level].length--;\n        }\n    }\n\n}\n",
  "sourcePath": "/Users/allan/src2/interest-swaps/contracts/OrderBook.sol",
  "compiler": {
    "name": "solc",
    "version": "0.5.8+commit.23d335f2.Emscripten.clang"
  },
  "schemaVersion": "3.0.11",
  "updatedAt": "2019-08-03T14:17:54.145Z",
  "devdoc": {
    "methods": {}
  },
  "userdoc": {
    "methods": {}
  }
}